:020000040000FA
:06000000A1EF08F0120060
:06100000A1EF08F0120050
:02102A000000C4
:04102C002A0EF66E24
:10103000100EF76E000EF86E00010900F550656F96
:101040000900F550666F03E1656701D03DD00900E6
:10105000F550606F0900F550616F0900F550626F3F
:1010600009000900F550E96E0900F550EA6E090023
:1010700009000900F550636F0900F550646F09001D
:101080000900F6CF67F0F7CF68F0F8CF69F060C0DD
:10109000F6FF61C0F7FF62C0F8FF0001635302E191
:1010A000645307E00900F550EE6E6307F8E2640749
:1010B000F9D767C0F6FF68C0F7FF69C0F8FF000105
:0A10C0006507000E665BBFD7120043
:0610CA00FF0EE350036E6F
:1010D000EF0E01D0F30EE76EE72E6CEF08F00C0E6A
:1010E000026EE76AE72E72EF08F0022E71EF08F049
:0810F000032E6AEF08F0120064
:0810F8000FD88B828B948B74DE
:10110000F00EE66E65EC08F0E5528B72F00EE66EBE
:1011100065EC08F0E552F3D70F0EC1129492949447
:021120001200BB
:0E112200000EF36E00EE00F0080E01D8120071
:10113000EA6002D0EE6AFCD7F350E9601200EE6A72
:02114000FCD7DA
:0E11420013EE00F023EE00F0F86A019C16ECAC
:0E11500008F0AFEC08F07CEC08F0FBD71200C2
:02115E0012007D
:00000001FF
