:020000040000FA
:06000000CCEF0BF0120032
:06100000CCEF0BF0120022
:02102A000000C4
:04102C000F0EC112D0
:1010300093909394939293969398939A939C819080
:1010400081948A928A9C8A9A8A888A86060EE66E9B
:101050007EEC0BF0E552060EE66E7EEC0BF0E552F0
:10106000060EE66E7EEC0BF0E55281840C0EE66E09
:10107000ACEC0BF0E55281940C0EE66EACEC0BF090
:10108000E552060EE66E7EEC0BF0E55281840C0E06
:10109000E66EACEC0BF0E55281940C0EE66EACEC17
:1010A0000BF0E552060EE66E7EEC0BF0E552818405
:1010B0000C0EE66EACEC0BF0E55281940C0EE66E75
:1010C000ACEC0BF0E5528A9C8A9A8A888A968184D5
:1010D0000C0EE66EACEC0BF0E55281940C0EE66E55
:1010E000ACEC0BF0E552280EE66E0ED8E552060E7B
:1010F000E66E0AD8E5520E0EE66E06D8E552010EEF
:10110000E66E02D8E5521200D9CFE6FFE1CFD9FF53
:1011100081908194FE0EDBA802D08A8601D08A9647
:10112000DBAA02D08A8801D08A98DBAC02D08A8AF6
:1011300001D08A9ADBAE02D08A8C01D08A9C81844D
:101140000C0EE66EACEC0BF0E55281940C0EE66EE4
:10115000ACEC0BF0E552FE0EDBA002D08A8601D08B
:101160008A96DBA202D08A8801D08A98DBA402D0BA
:101170008A8A01D08A9ADBA602D08A8C01D08A9C06
:1011800081840C0EE66EACEC0BF0E55281940C0EF3
:10119000E66EACEC0BF0E552E552E7CFD9FF12005A
:1011A000D9CFE6FFE1CFD9FF819081948A8CFE0EE2
:1011B000DBA802D08A8601D08A96DBAA02D08A8870
:1011C00001D08A98DBAC02D08A8A01D08A9A8184C5
:1011D0000C0EE66EACEC0BF0E55281940C0EE66E54
:1011E000ACEC0BF0E552FE0EDBA002D08A8601D0FB
:1011F0008A96DBA202D08A8801D08A98DBA402D02A
:101200008A8A01D08A9ADBA602D08A8C01D08A9C75
:1012100081840C0EE66EACEC0BF0E55281940C0E62
:10122000E66EACEC0BF0E552E552E7CFD9FF1200C9
:10123000D9CFE6FFE1CFD9FFE652DF6AFD0EDB062C
:10124000000EF36EFD0EDBCFF4FFF350F45C14E3FD
:10125000FE0EDB50020A07E0030A02E0DF6A0DD04F
:10126000FD0EDB5003D0FD0EDB50400FDF6EDFCFF5
:10127000E6FF96DFE55201D0DF6AE552E552E7CF9F
:10128000D9FF1200D9CFE6FFE1CFD9FF8180819449
:10129000FE0EDBA802D08A8601D08A96DBAA02D095
:1012A0008A8801D08A98DBAC02D08A8A01D08A9AD7
:1012B000DBAE02D08A8C01D08A9C81840C0EE66E53
:1012C000ACEC0BF0E55281940C0EE66EACEC0BF03E
:1012D000E552FE0EDBA002D08A8601D08A96DBA200
:1012E00002D08A8801D08A98DBA402D08A8A01D0F1
:1012F0008A9ADBA602D08A8C01D08A9C81840C0E4B
:10130000E66EACEC0BF0E55281940C0EE66EACECA4
:101310000BF0E552E552E7CFD9FF1200D9CFE6FF37
:10132000E1CFD9FF070EE126D9CFE9FFDACFEAFFF7
:10133000200EEE6EEE6AEE6AEE6AEE6AEE6AEE6A13
:10134000D9CFE6FFDACFE6FFFD0EDBCFE6FFFE0EDC
:10135000DBCFE6FF03EC0AF0E552E552E552E55239
:10136000D9CFE6FFDACFE6FF0CD8E552E552070EFB
:10137000E15C02E2E16AE552E16EE552E7CFD9FFB6
:101380001200D9CFE6FFE1CFD9FFFD0EDBCFE9FF99
:10139000FE0EDBCFEAFFEF5010E0FD0EDBCFE9FFE2
:1013A000FE0EDBCFEAFFEF50E66E6CDFE552FD0E7E
:1013B000DB2AFE0EEAE3DB2AE8D7E552E7CFD9FFC6
:1013C0001200D9CFE6FFE1CFD9FFFD0EDBCFF6FF4C
:1013D000FE0EDBCFF7FF0800F55011E0FD0EDBCF6E
:1013E000F6FFFE0EDBCFF7FF0800F550E66E4ADF92
:1013F000E552FD0EDB2AFE0EE8E3DB2AE6D7E552D6
:06140000E7CFD9FF120046
:0A140600D9CFE6FFDACFE6FFFA0EB9
:10141000E3CFD9FFFB0EE3CFDAFFFD0EE35209E77E
:101420002D0EDE6EFC0EE31EE32AFD0ED8B4E3069D
:10143000E31EE652E652E652FD0EE124E76EFF0E91
:10144000E220E46EE652F70EE3CFE6FFF70EE3CFBD
:10145000E6FF73EC0AF0F90EE124E96EFF0EE220DC
:10146000EA6E63EC0AF00AE160EC0AF009E163EC71
:101470000AF008E160EC0AF007E108D06EEC0AF02F
:1014800069EC0AF06EEC0AF069EC0AF06EEC0AF016
:10149000DE6AF90EE126FF0EE222FF0EE3CFDAFF4D
:1014A000E552FF0EE3CFD9FFE552FC0EE124E96ED1
:1014B000FF0EE220EA6EEECFF3FFEFCFF4FF120053
:1014C000EF380F0B1200EF500F0B02E1EE52D884F1
:1014D0001200EF380F0B300FDE6E1200EE500F0BC4
:1014E000300FDE6E1200FC0EE3CFE9FFFD0EE3CFFE
:1014F000EAFF100EE66EEE6AEE6AEF6AD890FD0E15
:10150000E336FE0EE336ED36ED36EF36FF0EE3063C
:1015100009E094EC0AF0EE5294EC0AF0EE5294ECEE
:101520000AF0EDD7E56E1200030EEF24E8B6EF6E79
:0A153000300EEF24E8BEEF6E000C51
:06153A00D9CFE6FFE1CF6E
:10154000D9FFE65283D8010EE66E020EE66E18EC65
:1015500009F0E552E552480EE66E170EE66EE1EC34
:1015600009F0E552E552010EE66EE66E18EC09F060
:10157000E552E5522A0EE66E170EE66EE1EC09F032
:10158000E552E552DF6AFA0EE66E7EEC0BF0E552AC
:10159000FA0EE66E7EEC0BF0E552FA0EE66E7EEC8D
:1015A0000BF0E552FA0EE66E7EEC0BF0E552DFCF63
:1015B00004F00F0EE76E0418E8AE02D0E73402D054
:1015C000E750045C1BE2180EE66E84EC08F0E5526E
:1015D000010EE66E020EE66E18EC09F0E552E552D9
:1015E000FA0EE66E7EEC0BF0E552960EE66E7EECA1
:1015F0000BF0E552DF2A8B708B72D9D7FA0EE66EAC
:101600007EEC0BF0E552FA0EE66E7EEC0BF0E55246
:10161000FA0EE66E7EEC0BF0E552FA0EE66E7EEC0C
:101620000BF0E552DF6ADFCF04F00F0EE76E04180F
:10163000E8AE02D0E73402D0E750045CA3E21C0E0F
:10164000E66E84EC08F0E552DF2AEDD70F0EC112EA
:0E1650009490949216EC08F08B908B8212000E
:02165E002A0E52
:10166000F66E100EF76E000EF86E00010900F550D0
:10167000656F0900F550666F03E1656701D03DD0E5
:101680000900F550606F0900F550616F0900F550D1
:10169000626F09000900F550E96E0900F550EA6E25
:1016A000090009000900F550636F0900F550646FE7
:1016B00009000900F6CF67F0F7CF68F0F8CF69F0BE
:1016C00060C0F6FF61C0F7FF62C0F8FF000163531E
:1016D00002E1645307E00900F550EE6E6307F8E29B
:1016E0006407F9D767C0F6FF68C0F7FF69C0F8FF65
:0C16F00000016507000E665BBFD712000A
:0416FC00FF0EE350AA
:10170000036EEF0E01D0F30EE76EE72E85EF0BF0C0
:101710000C0E026EE76AE72E8BEF0BF0022E8AEFBB
:0A1720000BF0032E83EF0BF0120014
:06172A0020205049434459
:1017300075696E6F204E414E4F2020205049433135
:10174000384632323530200020202053454D50524B
:08175000412054454320200014
:08175800FF0EE350036E480E82
:1017600001D04C0EE76EE72EFED7E76AE72EFED7D4
:08177000032EF7D70000120060
:08177800000EF36E00EE00F01C
:10178000080E01D81200EA6002D0EE6AFCD7F350CE
:08179000E9601200EE6AFCD7CB
:0817980013EE00F023EE00F057
:1017A000F86A019C2FEC0BF0DAEC0BF09DEC0AF0E0
:0417B000FBD7120051
:0217B400120021
:00000001FF
