:020000040000FA
:06000000CFEF04F0120036
:0A00060001000E1000006A00000067
:0400100006000000E6
:0C0014000F0EC112949C949E9398939A36
:10002000939C939E829C829E819E819C818A8188E2
:10003000060EE66E98EC04F0E552060EE66E98ECBD
:1000400004F0E552060EE66E98EC04F0E552828E5E
:100050000C0EE66EAFEC04F0E552829E0C0EE66EDE
:10006000AFEC04F0E552060EE66E98EC04F0E552B3
:10007000828E0C0EE66EAFEC04F0E552829E0C0E02
:10008000E66EAFEC04F0E552060EE66E98EC04F076
:10009000E552828E0C0EE66EAFEC04F0E552829EC5
:1000A0000C0EE66EAFEC04F0E552819E819C818AD5
:1000B0008198828E0C0EE66EAFEC04F0E552829EC3
:1000C0000C0EE66EAFEC04F0E552280EE66E0ED88C
:1000D000E552060EE66E0AD8E5520E0EE66E06D81A
:1000E000E552010EE66E02D8E5521200D9CFE6FFC6
:1000F000E1CFD9FF829C829EFE0EDBA802D08188D0
:1001000001D08198DBAA02D0818A01D0819ADBAC30
:1001100002D0818C01D0819CDBAE02D0818E01D0D7
:10012000819E828E0C0EE66EAFEC04F0E552829E4C
:100130000C0EE66EAFEC04F0E552FE0EDBA002D032
:10014000818801D08198DBA202D0818A01D0819A76
:10015000DBA402D0818C01D0819CDBA602D0818EF1
:1001600001D0819E828E0C0EE66EAFEC04F0E5525B
:10017000829E0C0EE66EAFEC04F0E552E552E7CF3E
:10018000D9FF1200D9CFE6FFE1CFD9FF829C829E32
:10019000818EFE0EDBA802D0818801D08198DBAA77
:1001A00002D0818A01D0819ADBAC02D0818C01D04F
:1001B000819C828E0C0EE66EAFEC04F0E552829EBE
:1001C0000C0EE66EAFEC04F0E552FE0EDBA002D0A2
:1001D000818801D08198DBA202D0818A01D0819AE6
:1001E000DBA402D0818C01D0819CDBA602D0818E61
:1001F00001D0819E828E0C0EE66EAFEC04F0E552CB
:10020000829E0C0EE66EAFEC04F0E552E552E7CFAD
:10021000D9FF1200D9CFE6FFE1CFD9FFE652DF6A5E
:10022000FD0EDB06000EF36EFD0EDBCFF4FFF35088
:10023000F45C14E3FE0EDB50020A07E0030A02E05E
:10024000DF6A0DD0FD0EDB5003D0FD0EDB50400FFA
:10025000DF6EDFCFE6FF96DFE55201D0DF6AE552C1
:10026000E552E7CFD9FF1200D9CFE6FFE1CFD9FFA2
:10027000828C829EFE0EDBA802D0818801D08198FC
:10028000DBAA02D0818A01D0819ADBAC02D0818CBA
:1002900001D0819CDBAE02D0818E01D0819E828E06
:1002A0000C0EE66EAFEC04F0E552829E0C0EE66E8C
:1002B000AFEC04F0E552FE0EDBA002D0818801D045
:1002C0008198DBA202D0818A01D0819ADBA402D07E
:1002D000818C01D0819CDBA602D0818E01D0819ED1
:1002E000828E0C0EE66EAFEC04F0E552829E0C0E90
:1002F000E66EAFEC04F0E552E552E7CFD9FF12000D
:10030000D9CFE6FFE1CFD9FF070EE126D9CFE9FF2C
:10031000DACFEAFF200EEE6EEE6AEE6AEE6AEE6A61
:10032000EE6AEE6AD9CFE6FFDACFE6FFFD0EDBCF4D
:10033000E6FFFE0EDBCFE6FF77EC03F0E552E55279
:10034000E552E552D9CFE6FFDACFE6FF0CD8E55209
:10035000E552070EE15C02E2E16AE552E16EE55228
:10036000E7CFD9FF1200D9CFE6FFE1CFD9FFFD0ECD
:10037000DBCFE9FFFE0EDBCFEAFFEF5010E0FD0E12
:10038000DBCFE9FFFE0EDBCFEAFFEF50E66E6CDF5E
:10039000E552FD0EDB2AFE0EEAE3DB2AE8D7E55242
:1003A000E7CFD9FF1200D9CFE6FFE1CFD9FFFD0E8D
:1003B000DBCFF6FFFE0EDBCFF7FF0800F55011E0B4
:1003C000FD0EDBCFF6FFFE0EDBCFF7FF0800F5508A
:1003D000E66E4ADFE552FD0EDB2AFE0EE8E3DB2A7D
:0A03E000E6D7E552E7CFD9FF12007F
:0603EA00E2D8010EE66EF0
:1003F000E66E0AEC01F0E552E552E10EE66E090EFA
:10040000E66ED3EC01F0E552E552090EE66E010E00
:10041000E66E0AEC01F0E552E5526AC0E6FF6CC0F8
:10042000E6FF6EC0E6FF58D8E552E552E55280B6C9
:10043000FED7F28EF28C80B613D0090EE66E010E56
:10044000E66E0AEC01F0E552E5526AC0E6FF6CC0C8
:10045000E6FF6EC0E6FF40D8E552E552E552EBD725
:10046000090EE66E010EE66E0AEC01F0E552E55269
:100470006AC0E6FF6CC0E6FF6EC0E6FF2DD8E5520D
:10048000E552E552780EE66EDDEC04F0E55280B6FA
:10049000E7D7010EE66E020EE66E0AEC01F0E552B9
:1004A000E552D80EE66E090EE66ED3EC01F0E55289
:1004B000E5526AC0E6FF6CC0E6FF6EC0E6FF0CD8EE
:1004C000E552E552E55280B6CBD7090EE66E010E35
:1004D000E66E0AEC01F0EBD7D9CFE6FFE1CFD9FF0A
:1004E000FE0EDBCF02F00A0EE76E0218E8AE02D075
:1004F000E73402D0E750025C07E2000EE66EE66ADF
:1005000080EC01F0E552E552FE0EDBCF02F0036A0B
:1005100002BE036802C0E6FF03C0E6FF80EC01F004
:10052000E552E552270EE66E34EC01F0E552FD0E81
:10053000DBCF02F00A0EE76E0218E8AE02D0E73415
:1005400002D0E750025C07E2000EE66EE66A80EC3D
:1005500001F0E552E552FD0EDBCF02F0036A02BE68
:10056000036802C0E6FF03C0E6FF80EC01F0E5523D
:10057000E552220EE66E34EC01F0E552FC0EDBCFC4
:1005800002F0036A02BE036802C0E6FF03C0E6FF92
:1005900080EC01F0E552E552D60EE66E090EE66EED
:1005A000D3EC01F0E552E552E552E7CFD9FF120056
:1005B0000F0EC11294929494928615D8940EE66E02
:1005C0007CEC04F0E552840EE66E6D0EE66E60EC97
:1005D00004F0E552E5520AEC00F0010EE66E76EC0E
:1005E00000F0E5521200D09EF29EF28CF28AF29454
:1005F000F1841200DACFE4FFE2CFDAFFE9CFE4FFC3
:10060000EACFE4FFF6CFE4FFF7CFE4FFF5CFE4FF56
:10061000F3CFE4FFF4CFE4FFFACFE4FF00EE00F005
:10062000020EE80403E3EECFE4FFFBD700EE02F096
:10063000020EE80403E3EECFE4FFFBD7E652F2A498
:1006400021D0840EE66E6D0EE66E60EC04F0E5528D
:10065000E552F29400016A2B000E6B230A0E6A1910
:1006600011E16B510FE16A6B6B6B6C2B000E6D230C
:100670003C0E6C1907E16D5105E16C6B6D6B6E2BD7
:10068000000E6F23E55200EE03F0020EE80403E3D0
:10069000E5CFEDFFFBD700EE01F0020EE80403E327
:1006A000E5CFEDFFFBD7E5CFFAFFE5CFF4FFE5CFD0
:1006B000F3FFE5CFF5FFE5CFF7FFE5CFF6FFE5CF99
:1006C000EAFFE5CFE9FFE5CFDAFF1100D8CFE4FF7D
:1006D000E0CFE4FFE46EDACFE4FFE652E552E5CF87
:0E06E000DAFFE550E5CFE0FFE5CFD8FF1000D0
:0206EE00D9CF62
:1006F000E6FFDACFE6FFFA0EE3CFD9FFFB0EE3CF3A
:10070000DAFFFD0EE35209E72D0EDE6EFC0EE31E4E
:10071000E32AFD0ED8B4E306E31EE652E652E652A3
:10072000FD0EE124E76EFF0EE220E46EE652F70EC6
:10073000E3CFE6FFF70EE3CFE6FFE7EC03F0F90EB9
:10074000E124E96EFF0EE220EA6ED7EC03F00AE145
:10075000D4EC03F009E1D7EC03F008E1D4EC03F0AA
:1007600007E108D0E2EC03F0DDEC03F0E2EC03F08B
:10077000DDEC03F0E2EC03F0DE6AF90EE126FF0E99
:10078000E222FF0EE3CFDAFFE552FF0EE3CFD9FFFF
:10079000E552FC0EE124E96EFF0EE220EA6EEECF98
:1007A000F3FFEFCFF4FF1200EF380F0B1200EF5002
:1007B0000F0B02E1EE52D8841200EF380F0B300F0E
:1007C000DE6E1200EE500F0B300FDE6E1200FC0ECC
:1007D000E3CFE9FFFD0EE3CFEAFF100EE66EEE6A0F
:1007E000EE6AEF6AD890FD0EE336FE0EE336ED3684
:1007F000ED36EF36FF0EE30609E008EC04F0EE52AA
:1008000008EC04F0EE5208EC04F0EDD7E56E1200AF
:10081000030EEF24E8B6EF6E300EEF24E8BEEF6E65
:02082000000CCA
:0E082200060EF66E000EF76E000EF86E000168
:100830000900F550656F0900F550666F03E16567C3
:1008400001D03DD00900F550606F0900F550616F8F
:100850000900F550626F09000900F550E96E0900C2
:10086000F550EA6E090009000900F550636F0900B0
:10087000F550646F09000900F6CF67F0F7CF68F014
:10088000F8CF69F060C0F6FF61C0F7FF62C0F8FF03
:100890000001635302E1645307E00900F550EE6E76
:1008A0006307F8E26407F9D767C0F6FF68C0F7FF8F
:1008B00069C0F8FF00016507000E665BBFD7120034
:1008C000D9CFE6FFDACFE6FFE1CFD9FFE2CFDAFFFB
:1008D000E652E652FC0EDBCFDEFFDBCFDDFF010E82
:1008E000DB50D76EDF50D66EE552E552E552E5CFCC
:0808F000DAFFE7CFD9FF120087
:0808F800D9CFE6FFDACFE6FFDD
:10090000E1CFD9FFE2CFDAFFFD0EDB507F0BD56ED2
:10091000D76AD66AF294FD0EDBAE02D0F28A01D01D
:10092000F29AD58EE552E5CFDAFFE7CFD9FF120074
:10093000FF0EE350056EEF0E01D0F30EE76EE72ECB
:100940009FEF04F00C0E046EE76AE72EA5EF04F0AB
:0E095000042EA4EF04F0052E9DEF04F012001B
:02095E00FF0E8A
:10096000E350056E480E01D04C0EE76EE72EFED721
:0E097000E76AE72EFED7052EF7D7000012002B
:02097E00000E69
:10098000F36E00EE00F0080E01D81200EA6002D00B
:0E099000EE6AFCD7F350E9601200EE6AFCD765
:02099E0013EE56
:1009A00000F023EE00F0F86A019C11EC04F003EC77
:0A09B00008F0F5EC01F0FBD712008F
:0609BA00FF0EE350056E84
:1009C0001B0E00D001D0200EE76EE72EFED7052EBD
:0609D000FAD700D012006E
:0A09D60020005061757361203A2083
:0A09E0000043726F6E6F6D2E200051
:06100000CFEF04F0120026
:021006001200D6
:06100800FAEF02F01200F5
:02100E000000E0
:0410100000000000DC
:0610180066EF03F0120078
:00000001FF
