:020000040000FA
:060000002CEF10F01200CD
:061000002CEF10F01200BD
:02102A000000C4
:04102C000F0EC112D0
:10103000959495969598959A959C959E8C948C965A
:101040008C9E8C9C8C8A8C88060EE66EF5EC0FF0DC
:10105000E552060EE66EF5EC0FF0E552060EE66E72
:10106000F5EC0FF0E5528C860C0EE66E0CEC10F0F1
:10107000E5528C960C0EE66E0CEC10F0E552060E66
:10108000E66EF5EC0FF0E5528C860C0EE66E0CEC7D
:1010900010F0E5528C960C0EE66E0CEC10F0E5525A
:1010A000060EE66EF5EC0FF0E5528C860C0EE66E41
:1010B0000CEC10F0E5528C960C0EE66E0CEC10F079
:1010C000E5528C9E8C9C8C8A8C988C860C0EE66EDD
:1010D0000CEC10F0E5528C960C0EE66E0CEC10F059
:1010E000E552280EE66E0ED8E552060EE66E0AD8D8
:1010F000E5520E0EE66E06D8E552010EE66E02D8F7
:10110000E5521200D9CFE6FFE1CFD9FF8C948C963F
:10111000FE0EDBA802D08C8801D08C98DBAA02D00E
:101120008C8A01D08C9ADBAC02D08C8C01D08C9C48
:10113000DBAE02D08C8E01D08C9E8C860C0EE66EBF
:101140000CEC10F0E5528C960C0EE66E0CEC10F0E8
:10115000E552FE0EDBA002D08C8801D08C98DBA279
:1011600002D08C8A01D08C9ADBA402D08C8C01D066
:101170008C9CDBA602D08C8E01D08C9E8C860C0EB3
:10118000E66E0CEC10F0E5528C960C0EE66E0CEC54
:1011900010F0E552FE0EDB0408E0FE0EDB50020804
:1011A00004E0FE0EDB50030805E10C0EE66E0CECCD
:1011B00010F0E552E552E7CFD9FF1200D9CFE6FF94
:1011C000E1CFD9FF8C948C968C8EFE0EDBA802D0DA
:1011D0008C8801D08C98DBAA02D08C8A01D08C9AA2
:1011E000DBAC02D08C8C01D08C9C8C860C0EE66E15
:1011F0000CEC10F0E5528C960C0EE66E0CEC10F038
:10120000E552FE0EDBA002D08C8801D08C98DBA2C8
:1012100002D08C8A01D08C9ADBA402D08C8C01D0B5
:101220008C9CDBA602D08C8E01D08C9E8C860C0E02
:10123000E66E0CEC10F0E5528C960C0EE66E0CECA3
:1012400010F0E552E552E7CFD9FF1200D9CFE6FF03
:10125000E1CFD9FFE652DF6AFD0EDB06000EF36E2A
:10126000FD0EDBCFF4FFF350F45C20E3FE0EDB5009
:10127000040A13E0070A0DE0010A07E0030A02E08E
:10128000DF6A15D0FD0EDB500BD0FD0EDB50400F9A
:1012900007D0FD0EDB50140F03D0FD0EDB50540FB2
:1012A000DF6EDFCFE6FF8ADFE55201D0DF6AE5526D
:1012B000E552E7CFD9FF1200D9CFE6FFE1CFD9FF42
:1012C0008C848C96FE0EDBA802D08C8801D08C9882
:1012D000DBAA02D08C8A01D08C9ADBAC02D08C8C39
:1012E00001D08C9CDBAE02D08C8E01D08C9E8C8683
:1012F0000C0EE66E0CEC10F0E5528C960C0EE66EC1
:101300000CEC10F0E552FE0EDBA002D08C8801D070
:101310008C98DBA202D08C8A01D08C9ADBA402D0FC
:101320008C8C01D08C9CDBA602D08C8E01D08C9E44
:101330008C860C0EE66E0CEC10F0E5528C960C0EC2
:10134000E66E0CEC10F0E552E552E7CFD9FF120043
:10135000D9CFE6FFE1CFD9FF070EE126D9CFE9FFCC
:10136000DACFEAFF200EEE6EEE6AEE6AEE6AEE6A01
:10137000EE6AEE6AD9CFE6FFDACFE6FFFD0EDBCFED
:10138000E6FFFE0EDBCFE6FF8AEC0EF0E552E552FB
:10139000E552E552D9CFE6FFDACFE6FF42D9E55272
:1013A000E552070EE15C02E2E16AE552E16EE552C8
:1013B000E7CFD9FF1200D9CFE6FFE1CFD9FF070E63
:1013C000E126DE6ADD6A020EDB6A030EDB6A040ECA
:1013D000DB6A050EDB6AFB0EDBCF05F0FC0EDBCF14
:1013E00006F0FD0EDBCF07F0FE0EDBCF08F0CBECF6
:1013F0000CF006C0DEFF07C0DDFFDECFE6FFDDCF6D
:10140000E6FFA6DFE552E552FA0EDBCF14F0000E40
:10141000E76E1418E8AE02D0143403D0E750D88039
:10142000145401E3F4D02E0EE66E46DFE552FB0EB7
:10143000DBCF14F0FC0EDBCF15F0FD0EDBCF16F08A
:10144000FE0EDBCF17F0000EDFCF06F0010EDBCF74
:1014500007F0B4EC0BF005C018F006C019F007C097
:101460001AF008C01BF005C00AF006C00BF007C058
:101470000CF008C00DF014C005F015C006F016C041
:1014800007F017C008F034EC0CF0020E05C0DBFFCB
:10149000030E06C0DBFF040E07C0DBFF050E08C00D
:1014A000DBFFD950020FE96EDACFEAFFEECFE6FF9D
:1014B000EECFE6FFEECFE6FFEFCFE6FFAAEC0FF0B0
:1014C000E552E552E552E552020E04C0DBFF030E81
:1014D00005C0DBFF040E06C0DBFF050E07C0DBFF07
:1014E000FA0EDBCF14F0040EE76E1418E8AE02D04B
:1014F000143403D0E750D880145405E2040EF36E80
:10150000FA0EF3CFDBFFFA0EDB50E76E060EE7CFE5
:10151000DBFFDBCF14F0000EE76E1418E8AE02D04C
:10152000143403D0E750D880145458E2146A156A72
:10153000200E166E410E176ED950020FE96EDACFEB
:10154000EAFFEECF05F0EECF06F0EECF07F0EFCFDB
:1015500008F014C00AF015C00BF016C00CF017C04C
:101560000DF0C7EC0BF008C0EDFF07C0EDFF06C0A3
:10157000EDFF05C0EFFF020EDBCF14F0030EDBCF53
:1015800015F0040EDBCF16F0050EDBCF17F00A6A5C
:101590000B6A800E0C6E3F0E0D6E14C005F015C068
:1015A00006F016C007F017C008F0FAEC0CF0010ABC
:1015B00012E1060EDBCF18F0010EE76E1818E8AE48
:1015C00002D0183403D0E750D880185404E2300E0B
:1015D000E66E72DEE552060EDB069BD7020EDBCF0F
:1015E00005F0030EDBCF06F0040EDBCF07F0050E8F
:1015F000DBCF08F0CBEC0CF006C014F007C015F000
:1016000006C0E6FF07C0E6FFA3DEE552E552070E7F
:10161000E15C02E2E16AE552E16EE552E7CFD9FF13
:101620001200D9CFE6FFE1CFD9FFFD0EDBCFE9FFF6
:10163000FE0EDBCFEAFFEF5010E0FD0EDBCFE9FF3F
:10164000FE0EDBCFEAFFEF50E66E36DEE552FD0E12
:10165000DB2AFE0EEAE3DB2AE8D7E552E7CFD9FF23
:101660001200D9CFE6FFE1CFD9FFFD0EDBCFF6FFA9
:10167000FE0EDBCFF7FF0800F55011E0FD0EDBCFCB
:10168000F6FFFE0EDBCFF7FF0800F550E66E14DE26
:10169000E552FD0EDB2AFE0EE8E3DB2AE6D7E55233
:1016A000E7CFD9FF1200D9CFE6FFE1CFD9FF020E75
:1016B000E126010EDB6AFE0EDB50070BE76EFE0E25
:1016C000E7CFDBFFDB50070A1CE0010A18E0030A42
:1016D00014E0010A10E0070A0CE0010A08E0030A1E
:1016E00004E0010A10E1400E0FD0480E0DD0500E5C
:1016F0000BD0580E09D0600E07D0680E05D0700EC2
:1017000003D0780E01D0400EDF6EDFCFE6FFFADCAB
:10171000E552010EDB6A080EF36E010EDBCFF4FF1B
:10172000F350F45C12E2FC0EDBCFE9FFFD0EDBCFE1
:10173000EAFFEF50E66EC0DDE552FC0EDB2AFD0E3F
:1017400001E3DB2A010EDB2AE6D7E66A37DDE55244
:10175000020EE15C02E2E16AE552E16EE552E7CF9A
:04176000D9FF12009B
:0C1764000F9E08D00F9E07AE05D0066C4B
:10177000071EE86A07220F8E07C001F006C000F0BE
:10178000136A126A8E0E026E036A74EF0DF00F6A0E
:10179000B0EC0DF0C8EC0DF00FB658EF0DF00FA245
:1017A00005D00FB858EF0DF05FEF0DF00FAA05D080
:1017B0000FB058EF0DF05FEF0DF00FB002D00FA893
:1017C00002D06BEF0DF0036A0D500824026EE86A38
:1017D00003227E0E025EE86A035A126A136A006AE6
:1017E000016A0C500702F4CF01F0F3CF00F00B5068
:1017F0000702F3501326F4500022000E01220C5071
:101800000602F3501326F4500022000E01220A5063
:101810000702F3501226F4501322000E0022012278
:101820000B500602F3501226F4501322000E002231
:1018300001220C500502F3501226F4501322000E20
:10184000002201220A500602F4501226000E132232
:10185000002201220B500502F4501226000E132222
:101860000022012274EF0DF00D7E0F6AB0EC0DF036
:10187000C8EC0DF00FB658EF0DF00FA20AD00FAA6A
:1018800003D00FBE58EF0DF00FA464EF0DF061EF21
:101890000DF00FAA05D00FAC64EF0DF061EF0DF065
:1018A0000FA00AD00FA808D00FBE04D00FA402D0FA
:1018B0006DEF0DF071EF0DF0126A036A0D50085CC8
:1018C000116E10E305C013F006C000F007C001F070
:1018D00008C010F00AC005F00BC006F00CC007F0FD
:1018E0000F3A09D00AC013F00BC000F00CC001F091
:1018F0000DC010F0116C0F9E0FBC0F8E10C002F0C7
:101900000FB0A0EF0DF01A0E1160A0EF0DF0026AFB
:10191000086A0FA408D0056C061E071E081EE86A98
:101920000622072208220FAC08D0136C001E011EED
:10193000021EE86A002201220222046A115207E014
:1019400008340732063205320432112EF9D7055019
:10195000132606500022075001220850022204C01C
:1019600012F00F9E02AE0BD0126C131E001E011E51
:10197000021EE86A13220022012202220F8E02A018
:1019800006D0D8800132003213321232102A10C031
:1019900002F074EF0DF00F6AB0EC0DF00FB6D5EF5A
:1019A0000CF00FA20ED00FB405D07F0E076EFF0E05
:1019B000066E1FD0800E076E066A1BD0076A066A85
:1019C00018D00FB0FBD78F0E0860EDD77E0E0864DD
:1019D000F5D78E0E085C05E0D89007320632082A4B
:1019E000F8D70FA406D0066C071EE86A072207AED8
:1019F000E5D7120003EC0DF00FB6000C0FB0000C91
:101A00000FA4000C010C0F6AB0EC0DF0C8EC0DF047
:101A10000FB612000FAE08D00FA004D00FA802D04E
:101A20000F8012000F9012000D50085C0BE10C505B
:101A3000075C08E10B50065C05E10A50055C02E119
:101A40000F801200D8A002D00F8E10D008500DC009
:101A500008F00D6E07500CC007F00C6E06500BC05E
:101A600006F00B6E05500AC005F00A6E0D50085CBA
:101A700010E0FF0F09E00F900FB403D00FAE0F84FA
:101A800012000FAE0F9412000D2AD8900C320B32B8
:101A90000A320A50055E0B50065A0C50075A07BE10
:101AA000EAD7D890053606360736082EF8D7C8D7B5
:101AB0007F0E086EFF0E076E066E056E12007F0E1B
:101AC0000FBEFF0E086E02D07F0E086E800E076EEE
:101AD000066A056AF3D70FAE04D0800E086E076A57
:101AE000F7D7086A076AF4D70150001013101210D4
:101AF000F8E003BEF0D701BE0CD002500310EBE0BB
:101B0000D89012361336003601360206D8A00306E6
:101B1000F2D70350D4E10228D2E012AE11D07F0EEA
:101B2000121402E113A00CD0132AE86A0022012249
:101B300007E3D880013200321332022A0228BFE0C4
:101B40000250C9E013C005F000C006F00134076E72
:101B50000230086E0732089E0FBE088E5EEF0DF051
:101B60000736083602E30F840F7E06E10F80086A0D
:101B7000076A066A056A1200082803E0D88007325F
:101B80001200D890073202E10F8212000F86120075
:101B90000C360D3602E30F8C0F7E06E10F880D6ABE
:101BA0000C6A0B6A0A6A12000D2803E0D8800C3216
:0C1BB0001200D8900C32EAE10F8A1200FB
:041BBC00D9CFE6FF98
:101BC000E1CFD9FF080EE126DE6ADD6A020EDB6A8C
:101BD000030EDB6A0A0EF36E040EF3CFDBFF280E52
:101BE000F36E050EF3CFDBFFA00EF36E060EF3CF00
:101BF000DBFF3B0EF36E070EF3CFDBFF79D8010E50
:101C0000E66EE66E26EC09F0E552E552A60EE66EAB
:101C1000200EE66E31EC0BF0E552E552AF0EE66EAB
:101C2000DDEC0FF0E5528B84C80EE66E3AEC10F056
:101C3000E552C80EE66E3AEC10F0E5528B94C80EF1
:101C4000E66E3AEC10F0E552C80EE66E3AEC10F093
:101C5000E55259EC10F000090AE148EC10F0020ED0
:101C6000F3CFDBFF030EF4CFDBFF5EEC10F0010ED1
:101C7000E66E020EE66E26EC09F0E552E552020E23
:101C8000DBCFE6FF030EDBCFE6FFA8EC09F0E55261
:101C9000E552A20EE66E200EE66E31EC0BF0E55238
:101CA000E552020EDBCF14F0030EDBCF15F0153436
:101CB00004E21450C808000E1554B5E3020EDBCF41
:101CC00014F0030EDBCF15F0153404E21450C808ED
:101CD000000E1554A8E3010EDE26000EDD22DECF35
:101CE000E6FFDDCFE6FFA8EC09F0E552E552E6D7C6
:101CF00094940F0EC110C16E16EC08F0FA0EE66E49
:101D00002C0EE66EE30EE66E73EC0FF0E552E55234
:041D1000E552120086
:0C1D1400D9CFE6FFDACFE6FFFA0EE3CFEE
:101D2000D9FFFB0EE3CFDAFFFD0EE35209E72D0EDC
:101D3000DE6EFC0EE31EE32AFD0ED8B4E306E31EBE
:101D4000E652E652E652FD0EE124E76EFF0EE22077
:101D5000E46EE652F70EE3CFE6FFF70EE3CFE6FFC1
:101D6000FAEC0EF0F90EE124E96EFF0EE220EA6EC5
:101D7000EAEC0EF00AE1E7EC0EF009E1EAEC0EF015
:101D800008E1E7EC0EF007E108D0F5EC0EF0F0EC1E
:101D90000EF0F5EC0EF0F0EC0EF0F5EC0EF0DE6A65
:101DA000F90EE126FF0EE222FF0EE3CFDAFFE55245
:101DB000FF0EE3CFD9FFE552FC0EE124E96EFF0EE2
:101DC000E220EA6EEECFF3FFEFCFF4FF1200EF3820
:101DD0000F0B1200EF500F0B02E1EE52D8841200ED
:101DE000EF380F0B300FDE6E1200EE500F0B300F7E
:101DF000DE6E1200FC0EE3CFE9FFFD0EE3CFEAFF3B
:101E0000100EE66EEE6AEE6AEF6AD890FD0EE336CB
:101E1000FE0EE336ED36ED36EF36FF0EE30609E053
:101E20001BEC0FF0EE521BEC0FF0EE521BEC0FF020
:101E3000EDD7E56E1200030EEF24E8B6EF6E300E1C
:081E4000EF24E8BEEF6E000C78
:081E48002A0EF66E100EF76E73
:101E5000000EF86E00010900F550656F0900F5509D
:101E6000666F03E1656701D03DD00900F550606FF2
:101E70000900F550616F0900F550626F0900090013
:101E8000F550E96E0900F550EA6E090009000900F5
:101E9000F550636F0900F550646F09000900F6CF33
:101EA00067F0F7CF68F0F8CF69F060C0F6FF61C067
:101EB000F7FF62C0F8FF0001635302E1645307E0DB
:101EC0000900F550EE6E6307F8E26407F9D767C0C2
:101ED000F6FF68C0F7FF69C0F8FF00016507000E54
:061EE000665BBFD7120093
:0A1EE600D9CFE6FFDACFE6FFE1CF27
:101EF000D9FFE2CFDAFFC26AC06AFC0EDB407F0B7B
:101F00003C0BC26EFC0EDB38F00B300B146EFB0E7C
:101F1000DB500F0B1410C16EFD0EDB50040DF3509F
:101F2000380B156EFD0EDB380F0B070B146EFD0E14
:101F3000DB50800B14101510C06EFC0EDBAE03D00E
:101F40009E9C9D8CF28CC280E552E5CFDAFFE7CFF4
:041F5000D9FF1200A3
:0C1F5400D9CFE6FFDACFE6FFE1CFD9FFDE
:101F6000E2CFDAFFE652E652D950FD0F146EFF0EB3
:101F7000DA2014C0DEFFDD6EDECFE9FFDDCFEAFF41
:101F8000EF9EFA0EDBCF14F0FB0EDBCF15F0FC0E4C
:101F9000DBCF16F0FD0EDBCF17F014C004F015C038
:101FA00005F016C006F017C007F0E552E552E552FD
:0A1FB000E5CFDAFFE7CFD9FF1200FA
:061FBA00D9CFE6FFDACFEB
:101FC000E6FFE1CFD9FFE2CFDAFFFD0EDB407F0B6A
:101FD0003C0B146EC30EC2141410C26EC282E552C2
:0A1FE000E5CFDAFFE7CFD9FF1200CA
:061FEA00FF0EE3501D6E26
:101FF000EF0E01D0F30EE76EE72EFCEF0FF00C0EA4
:102000001C6EE76AE72E02EF10F01C2E01EF10F0B5
:082010001D2EFAEF0FF0120083
:08201800FF0EE3501D6E480E9F
:1020200001D04C0EE76EE72EFED7E76AE72EFED70B
:082030001D2EF7D7000012007D
:08203800000EF36E00EE00F053
:10204000080E01D81200EA6002D0EE6AFCD7F35005
:08205000E9601200EE6AFCD702
:0820580013EE00F023EE00F08E
:10206000F86A0F9C24EC0FF060EC10F0DEEC0DF041
:04207000FBD7120088
:0C207400FF0EE3501D6E1B0E00D001D0CB
:10208000200EE76EE72EFED71D2EFAD700D01200E5
:10209000C450176E166AC3501610F36E17C0F4FFC3
:0220A00012002C
:0E20A200203A2000436F6E7461646F724C44EC
:0220B0005200DC
:0A20B200C250020B01E0010E120003
:0420BC00C2821200CA
:0220C00012000C
:00000001FF
