:020000040000FA
:06000000AEEF08F0120053
:06100000AEEF08F0120043
:02102A000000C4
:04102C002A0EF66E24
:10103000100EF76E000EF86E00010900F550656F96
:101040000900F550666F03E1656701D03DD00900E6
:10105000F550606F0900F550616F0900F550626F3F
:1010600009000900F550E96E0900F550EA6E090023
:1010700009000900F550636F0900F550646F09001D
:101080000900F6CF67F0F7CF68F0F8CF69F060C0DD
:10109000F6FF61C0F7FF62C0F8FF0001635302E191
:1010A000645307E00900F550EE6E6307F8E2640749
:1010B000F9D767C0F6FF68C0F7FF69C0F8FF000105
:0A10C0006507000E665BBFD7120043
:0610CA000F0EC11293900D
:1010D0009392939493969398939A939C92961200DA
:1010E00000016A6B6B6BF1DF80B609D0C80EE66E4B
:1010F00087EC08F0E5528A908A828A8403D08A902D
:0E1100008A928A948A968A988A9A8A9CEDD757
:02110E00FF0ED2
:10111000E350036EEF0E01D0F30EE76EE72E8EEF75
:1011200008F00C0E026EE76AE72E94EF08F0022E2C
:0C11300093EF08F0032E8CEF08F0120083
:04113C00000EF36E40
:1011400000EE00F0080E01D81200EA6002D0EE6A4C
:0C115000FCD7F350E9601200EE6AFCD7F7
:04115C0013EE00F09E
:1011600023EE00F0F86A019C16EC08F0BCEC08F0E5
:0811700070EC08F0FBD712003F
:02117800120063
:00000001FF
