:020000040000FA
:060000004BEF09F01200B5
:061000004BEF09F01200A5
:061008003EEF08F01200AB
:06101800C4EF08F0120015
:02102A000000C4
:04102C000F0EC110D2
:10103000C16E968292869298929A9590D08EF29EE8
:10104000F29CF286F180F290F18EF28EF28C898A17
:10105000C80EE66E24EC09F0E552C80EE66E24ECEC
:1010600009F0E552899AC80EE66E24EC09F0E552C3
:10107000C80EE66E24EC09F0E552E9D7DACFE4FFBA
:10108000E2CFDAFFE9CFE4FFEACFE4FFF6CFE4FFF7
:10109000F7CFE4FFF5CFE4FFF3CFE4FFF4CFE4FFB5
:1010A000FACFE4FF00EE00F0020EE80403E3EECF17
:1010B000E4FFFBD700EE05F0000EE80403E3EECFFB
:1010C000E4FFFBD7E652D9CFE6FFE1CFD9FF020E0E
:1010D000E126F2A02CD0010EDB6A8150DF6E010EFA
:1010E000DB6ADBCF02F0050EE76E0218E8AE02D035
:1010F000E73402D0E750025C19E28988C80EE66E38
:1011000024EC09F0E552C80EE66E24EC09F0E55235
:101110008998C80EE66E24EC09F0E552C80EE66E1A
:1011200024EC09F0E552010EDB2ADBD7F290020E27
:10113000E15C02E2E16AE552E16EE552E7CFD9FFF8
:10114000E55200EE04F0000EE80403E3E5CFEDFF06
:10115000FBD700EE01F0020EE80403E3E5CFEDFF5C
:10116000FBD7E5CFFAFFE5CFF4FFE5CFF3FFE5CFFF
:10117000F5FFE5CFF7FFE5CFF6FFE5CFEAFFE5CFD7
:10118000E9FFE5CFDAFF1100D8CFE4FFE0CFE4FFBD
:10119000E46EDACFE4FFE652E552E5CFDAFFE55040
:0A11A000E5CFE0FFE5CFD8FF100017
:0611AA002A0EF66E100E85
:1011B000F76E000EF86E00010900F550656F09002A
:1011C000F550666F03E1656701D03DD00900F55029
:1011D000606F0900F550616F0900F550626F0900FA
:1011E0000900F550E96E0900F550EA6E09000900A2
:1011F0000900F550636F0900F550646F090009009C
:10120000F6CF67F0F7CF68F0F8CF69F060C0F6FF6F
:1012100061C0F7FF62C0F8FF0001635302E164534D
:1012200007E00900F550EE6E6307F8E26407F9D7AE
:1012300067C0F6FF68C0F7FF69C0F8FF00016507E7
:08124000000E665BBFD712002F
:08124800FF0EE350046EEF0EEF
:1012500001D0F30EE76EE72E2BEF09F00C0E036EB4
:10126000E76AE72E31EF09F0032E30EF09F0042E84
:0612700029EF09F0120055
:0A127600000EF36E00EE00F0080E0B
:1012800001D81200EA6002D0EE6AFCD7F350E960A0
:061290001200EE6AFCD71B
:0A12960013EE00F023EE00F0F86AFA
:1012A000019CD5EC08F059EC09F016EC08F0FBD7DE
:0212B00012002A
:0212B200120028
:00000001FF
