:020000040000FA
:060000009FEF08F0120062
:061000009FEF08F0120052
:02102A000000C4
:04102C002A0EF66E24
:10103000100EF76E000EF86E00010900F550656F96
:101040000900F550666F03E1656701D03DD00900E6
:10105000F550606F0900F550616F0900F550626F3F
:1010600009000900F550E96E0900F550EA6E090023
:1010700009000900F550636F0900F550646F09001D
:101080000900F6CF67F0F7CF68F0F8CF69F060C0DD
:10109000F6FF61C0F7FF62C0F8FF0001635302E191
:1010A000645307E00900F550EE6E6307F8E2640749
:1010B000F9D767C0F6FF68C0F7FF69C0F8FF000105
:0A10C0006507000E665BBFD7120043
:0610CA0014D88A8A898017
:1010D0008982898489868988898A8A808A828A84A1
:1010E0008A868A8A8A8C8A8E8B808B828B848B8C70
:1010F0008B8EEDD70F0EC11292909292929492968F
:101100009298929A9390939293949396939A939C95
:0E111000939E949094929494949C949E1200BA
:02111E00000EC1
:10112000F36E00EE00F0080E01D81200EA6002D063
:0E113000EE6AFCD7F350E9601200EE6AFCD7BD
:02113E0013EEAE
:1011400000F023EE00F0F86A019C16EC08F0ADEC1C
:0A11500008F065EC08F0FBD7120070
:02115A00120081
:00000001FF
