:1000000000EF08F00000000000EF00F0000000002A
:0A0010000000000000000000F3D71C
:10100000B7EC09F0EFD846D9010E0001626FA5D800
:101010000C0E626FA2D8010E5C6E010E5D6E370E73
:101020005E6E000E5F6EF9D80D0E0B6EAF0E0C6E7D
:10103000B60E0D6E0D2EFED70C2EFCD70B2EFAD74A
:101040000000020E5C6E010E5D6E260E5E6E000EDE
:101050005F6EE3D80D0E0B6EAF0E0C6EB60E0D6EFE
:101060000D2EFED70C2EFCD70B2EFAD70000010E4A
:10107000626F73D8010E5C6E010E5D6E480E5E6E7F
:10108000000E5F6ECAD80D0E0B6EAF0E0C6EB60E54
:101090000D6E0D2EFED70C2EFCD70B2EFAD70000AE
:1010A000020E5C6E010E5D6E150E5E6E000E5F6EC2
:1010B000B4D80D0E0B6EAF0E0C6EB60E0D6E0D2E5F
:1010C000FED70C2EFCD70B2EFAD700008088596A69
:1010D0005A6A800E5A18006E800E005C02E10F0EF4
:1010E000595C13E28078807A040E0B6E0C0E0C6E45
:1010F000330E0D6E0D2EFED70C2EFCD70B2EFAD70D
:1011000000000000594A5A2AE4D78078807A040EF9
:101110000B6E0C0E0C6E330E0D6E0D2EFED70C2EBC
:0E112000FCD70B2EFAD700000000EFD7FFD748
:0C112E00000000000000000000001200A3
:10113A00240E0C6EB50E0D6E0D2EFED70C2EFCD79E
:06114A000000000012008D
:0A115000530E0D6E0D2EFED7120097
:10115A00000162BF02D0819601D0818662BD02D0B1
:10116A00819401D0818462BB02D0819201D08182B4
:10117A0062B902D0819001D081805BB002D0818AAD
:10118A0001D0819A8188CEDF819862B702D0819698
:10119A0001D0818662B502D0819401D0818462B384
:1011AA0002D0819201D0818262B102D0819001D0B5
:1011BA0081805BB002D0818A01D0819A8188B2DFB6
:0E11CA0081985BA002D0B4DF01D0BDDF12001F
:0C11D8005B9061C062F0BDDF5B80120024
:1011E400800ED06E0F0EC16E0F0EB46EC50ED56E8E
:1011F400926A936A946A956A966A806A816A826A34
:06120400836A846A1200F7
:10120A000900F5CFE6FF0006FBE10106F9E112004D
:10121A000FD0800E5C6E19D0C00E5C6E16D0940E84
:10122A005C6E13D0D40E5C6E10D0800E5C6E0DD046
:10123A005C50010AEEE05C50020AEEE05C50030AE0
:10124A00EEE05C50040AEEE0F0D75D04006E5C50FC
:10125A00002600C05CF000C062F07ADF5B90606B31
:10126A0060515E24E96E000E5F20EA6EEE520BE0DA
:10127A0060515E24E96E000E5F20EA6EEECF61F0E7
:0A128A00A6DF602BEDD75B80120099
:101294009398939A93909392939493968198819A26
:1012A400819681948192819046DF45DF44DF81827B
:1012B400818081883ADF81983EDF818836DF81989A
:1012C4003ADF818832DF819836DF819081882DDF93
:1012D400819831DF818829DF819881928186818894
:1012E40024DF819828DF8196818081881EDF8198A0
:1012F400819081881ADF81981EDF818816DF8198AA
:101304008180818812DF819816DF819081880DDFCA
:1013140081988186818481828180818806DF819899
:061324000ADF5B801200ED
:10136E0010EE15F0440E006E010E016E2A0EF66E92
:0E137E00130EF76E000EF86E05EC09F012006B
:10132A00205049432031384634353530202020209A
:01133A0000B2
:10133B002020202020323031362020202020202059
:01134B0000A1
:10134C002020496E696369616E646F2E2E2E2020F9
:01135C000090
:10135D00204146534D415254424F4152442020208A
:01136D00007F
:020000040030CA
:0E000000000C1F1EFF8381FF0FC00FE00F409A
:00000001FF
