:1000000000EF08F00000000000EF00F0000000002A
:0A0010000000000000000000F3D71C
:1010000084D8010E806E010E816E010E826E010E7B
:10101000836E010E846E6BD8806A816A826A836AED
:10102000846A65D8808063D88090808280905FD801
:10103000809280845CD88094808659D880968088FD
:1010400056D88098808A53D8809A848050D88490CB
:1010500084824DD8849284844AD88494828047D8EC
:101060008290828244D88292828441D88294828CF7
:101070003ED8829C828E3BD8829E838038D88390D3
:10108000838235D88392838432D8839483862FD801
:10109000839683882CD88398838A29D8839A838CD3
:1010A00026D8839C838E23D8839E818020D88190EC
:1010B00081821DD8819281841AD88194818617D823
:1010C0008196818814D88198818A11D8819A818CDF
:0E10D0000ED8819C818E0BD8819EA4D7FFD7AD
:1010DE000900F5CFE6FF0006FBE10106F9E112007B
:1010EE00020E0B6E040E0C6EBA0E0D6E0D2EFED78A
:0C10FE000C2EFCD70B2EFAD700001200BD
:10110A00800ED06E0F0EC16E0F0EB46EC50ED56E68
:0C111A00926A936A946A956A966A1200C1
:020000040030CA
:0E000000000C1F1EFF8381FF0FC00FE00F409A
:00000001FF
