:020000040000FA
:060000000FEF10F01200EA
:061000000FEF10F01200DA
:02102A000000C4
:04102C00D9CFE6FF33
:10103000E1CFD9FF0D0EE126DE6ADD6A020EDB6A22
:10104000030EDB6A040EDB6A050EDB6A060EDB6A42
:101050000A0EF36E070EF3CFDBFF280EF36E080EB9
:10106000F3CFDBFFA00EF36E090EF3CFDBFF3B0ED9
:10107000F36E0A0EF3CFDBFF2DDAE66A4CEC0DF0CF
:10108000E552730EE66E200EE66E69EC0EF0E55248
:10109000E552870EE66EC2EC0FF0E5520B0EDB6AEE
:1010A0000C0EDB6A0B0EDBCF14F00C0EDBCF15F051
:1010B000D890155004E6050E145C000E155817E282
:1010C000010EE66E1DEC10F0E5523DEC10F000094B
:1010D00008E12BEC10F0F3CFDEFFF4CFDDFF42ECA4
:1010E00010F00B0EDB2A0C0EDDE3DB2ADBD7000E43
:1010F000DFCF08F0010EDBCF09F07BEC0AF0070E22
:10110000DBCF0CF0080EDBCF0DF0090EDBCF0EF0BD
:101110000A0EDBCF0FF08EEC0AF0020E07C0DBFFE9
:10112000030E08C0DBFF040E09C0DBFF050E0AC07A
:10113000DBFF020EDBCF18F0030EDBCF19F0040E3D
:10114000DBCF1AF0050EDBCF1BF00C6A0D6AC80E60
:101150000E6E420E0F6E18C007F019C008F01AC0CC
:1011600009F01BC00AF08EEC0AF007C014F008C0AA
:1011700015F009C016F00AC017F00C6A0D6A480E87
:101180000E6E420E0F6EFBEC0AF0B8EC0BF0060E82
:1011900009C0DBFF050EE66E4CEC0DF0E552060EC5
:1011A000DBCFE6FFE66A16EC0EF0E552E552070EDD
:1011B000E66E4CEC0DF0E552710EE66E200EE66E1A
:1011C00069EC0EF0E552E552AF0EE66EC2EC0FF0A0
:1011D000E5520B0EDB6A0C0EDB6A0B0EDBCF14F054
:1011E0000C0EDBCF15F0D890155004E6050E145CFC
:1011F000000E155817E2010EE66E1DEC10F0E552D8
:101200003DEC10F0000908E12BEC10F0F3CFDEFF0D
:10121000F4CFDDFF42EC10F00B0EDB2A0C0EDDE309
:10122000DB2ADBD7000EDFCF08F0010EDBCF09F0A1
:101230007BEC0AF0070EDBCF0CF0080EDBCF0DF0D5
:10124000090EDBCF0EF00A0EDBCF0FF08EEC0AF0AA
:10125000020E07C0DBFF030E08C0DBFF040E09C04F
:10126000DBFF050E0AC0DBFF090EE66E4CEC0DF04D
:10127000E5524C0EE66ECAEC0DF0E5524D0EE66EF0
:10128000CAEC0DF0E5523A0EE66ECAEC0DF0E552EE
:10129000020EDBCF07F0030EDBCF08F0040EDBCF2E
:1012A00009F0050EDBCF0AF0DFEC0BF008C014F0FC
:1012B00009C015F008C0E6FF09C0E6FF16EC0EF005
:1012C000E552E5526F0EE66E200EE66E69EC0EF00A
:1012D000E552E552020EDBCF16F0030EDBCF17F01E
:1012E000040EDBCF18F0050EDBCF19F00C6A0D6A87
:1012F000200E0E6E410E0F6E16C007F017C008F0DC
:1013000018C009F019C00AF08EEC0AF0DFEC0BF0FF
:1013100008C014F009C015F00A0E0D6E0E6A92ECAA
:101320000BF004C014F005C015F004C0E6FF05C0C2
:10133000E6FF16EC0EF0E552E5526D0EE66E200E5D
:10134000E66E69EC0EF0E552E552A70EE66EC2ECD1
:101350000FF0E5520B0EDB6A0C0EDB6A0B0EDBCFD7
:1013600014F00C0EDBCF15F0D890155004E6050EE6
:10137000145C000E155817E2010EE66E1DEC10F01D
:10138000E5523DEC10F0000908E12BEC10F0F3CF32
:10139000DEFFF4CFDDFF42EC10F00B0EDB2A0C0E6B
:1013A000DDE3DB2ADBD7000EDFCF08F0010EDBCF59
:1013B00009F07BEC0AF0070EDBCF0CF0080EDBCF58
:1013C0000DF0090EDBCF0EF00A0EDBCF0FF08EEC26
:1013D0000AF0020E07C0DBFF030E08C0DBFF040E9D
:1013E00009C0DBFF050E0AC0DBFF400EE66E4CECC9
:1013F0000DF0E552680EE66E200EE66E69EC0EF01A
:10140000E552E552440EE66E4CEC0DF0E552020E4C
:10141000DBCF07F0030EDBCF08F0040EDBCF09F0C3
:10142000050EDBCF0AF0DFEC0BF008C014F009C0AA
:1014300015F008C0E6FF09C0E6FF16EC0EF0E55215
:10144000E552450EE66E4CEC0DF0E5526F0EE66E81
:10145000200EE66E69EC0EF0E552E552020EDBCF8F
:1014600016F0030EDBCF17F0040EDBCF18F0050EDD
:10147000DBCF19F00C6A0D6A200E0E6E410E0F6E56
:1014800016C007F017C008F018C009F019C00AF01C
:101490008EEC0AF0DFEC0BF008C014F009C015F078
:1014A0000A0E0D6E0E6A92EC0BF004C014F005C02B
:1014B00015F004C0E6FF05C0E6FF16EC0EF0E5529D
:1014C000E5526D0EE66E200EE66E69EC0EF0E5520A
:1014D000E552D3D50F0EC112F90EE66E040EE66E7C
:1014E000E30EE66E74EC0FF0E552E552E55294EF30
:0214F0000CF0FE
:0E14F200019E08D0019E09AE05D0086C091EAF
:10150000E86A0922018E09C003F008C002F0136ADC
:10151000126A8E0E046E056A2AEF0CF0016A66EC00
:101520000CF07EEC0CF001B60EEF0CF001A205D031
:1015300001B80EEF0CF015EF0CF001AA05D001B0C8
:101540000EEF0CF015EF0CF001B002D001A802D0A4
:1015500021EF0CF0056A0F500A24046EE86A052298
:101560007E0E045EE86A055A126A136A026A036A0A
:101570000E500902F4CF03F0F3CF02F00D50090230
:10158000F3501326F4500222000E03220E500802DC
:10159000F3501326F4500222000E03220C500902CD
:1015A000F3501226F4501322000E022203220D5093
:1015B0000802F3501226F4501322000E02220322D6
:1015C0000E500702F3501226F4501322000E02228E
:1015D00003220C500802F4501226000E132202229D
:1015E00003220D500702F4501226000E132202228D
:1015F00003222AEF0CF00F7E016A66EC0CF07EEC01
:101600000CF001B60EEF0CF001A20AD001AA03D033
:1016100001BE0EEF0CF001A41AEF0CF017EF0CF066
:1016200001AA05D001AC1AEF0CF017EF0CF001A0E5
:101630000AD001A808D001BE04D001A402D023EF33
:101640000CF027EF0CF0126A056A0F500A5C116E5D
:1016500010E307C013F008C002F009C003F00AC08D
:1016600010F00CC007F00DC008F00EC009F0013AF0
:1016700009D00CC013F00DC002F00EC003F00FC073
:1016800010F0116C019E01BC018E10C004F001B07D
:1016900056EF0CF01A0E116056EF0CF0046A0A6A4D
:1016A00001A408D0076C081E091E0A1EE86A082259
:1016B00009220A2201AC08D0136C021E031E041E6C
:1016C000E86A022203220422066A115207E00A3461
:1016D0000932083207320632112EF9D70750132685
:1016E00008500222095003220A50042206C012F0B8
:1016F000019E04AE0BD0126C131E021E031E041EAC
:10170000E86A1322022203220422018E04A006D0DA
:10171000D8800332023213321232102A10C004F081
:101720002AEF0CF0006A0EAE9BEF0BF00D6C0E1E54
:10173000E86A0E22001E09AEA3EF0BF0086C091E2A
:10174000E86A0922001ED9EC0FF009BEB3EF0BF0D6
:1017500000AE000C086C091EE86A0922046C051E24
:10176000E86A0522000C00BEAAEF0BF00188FF0C0E
:10177000016A66EC0CF001B6C2EF0BF001A20AD0D0
:1017800001B403D07F0E096E19D0800E096E16D0F9
:10179000096A14D001B0FCD7870E0A60F1D77E0E1B
:1017A0000A64F6D7860E0A5C04E0D89009320A2A49
:1017B000F9D701A403D0096C09AEEAD71200016A77
:1017C00066EC0CF001B6E9EF0BF001A20ED001B40B
:1017D00005D07F0E096EFF0E086E1FD0800E096EB9
:1017E000086A1BD0096A086A18D001B0FBD78F0EAF
:1017F0000A60EDD77E0E0A64F5D78E0E0A5C05E00E
:10180000D890093208320A2AF8D701A406D0086C09
:10181000091EE86A092209AEE5D712007F0E0A6E9A
:10182000FF0E096E086E076E12007F0E01BEFF0EDE
:101830000A6E02D07F0E0A6E800E096E086A076A71
:10184000F3D701AE04D0800E0A6E096AF7D70A6A90
:10185000096AF4D70350021013101210F8E005BE05
:10186000F0D703BE0CD004500510EBE0D890123630
:101870001336023603360406D8A00506F2D7055003
:10188000D4E10428D2E012AE11D07F0E121402E18E
:1018900013A00CD0132AE86A0222032207E3D8809F
:1018A000033202321332042A0428BFE00450C9E094
:1018B00013C007F002C008F00334096E04300A6E4A
:1018C00009320A9E01BE0A8E14EF0CF009360A3660
:1018D00002E30184017E06E101800A6A096A086A5E
:1018E000076A12000A2803E0D88009321200D89053
:1018F000093202E101821200018612000E360F3613
:1019000002E3018C017E06E101880F6A0E6A0D6A0E
:101910000C6A12000F2803E0D8800E321200D89013
:081920000E32EAE1018A120017
:081928000F0EC1129594959673
:101930009598959A959C959E8C948C968C9E8C9C53
:101940008C8A8C88060EE66EABEC0FF0E552060E24
:10195000E66EABEC0FF0E552060EE66EABEC0FF068
:10196000E5528C860C0EE66EEFEC0FF0E5528C968D
:101970000C0EE66EEFEC0FF0E552060EE66EABECE9
:101980000FF0E5528C860C0EE66EEFEC0FF0E55290
:101990008C960C0EE66EEFEC0FF0E552060EE66E3E
:1019A000ABEC0FF0E5528C860C0EE66EEFEC0FF010
:1019B000E5528C960C0EE66EEFEC0FF0E5528C9E25
:1019C0008C9C8C8A8C988C860C0EE66EEFEC0FF05B
:1019D000E5528C960C0EE66EEFEC0FF0E552280EF9
:1019E000E66E0ED8E552060EE66E0AD8E5520E0EE9
:1019F000E66E06D8E552010EE66E02D8E5521200F8
:101A0000D9CFE6FFE1CFD9FF8C948C96FE0EDBA8F0
:101A100002D08C8801D08C98DBAA02D08C8A01D0AD
:101A20008C9ADBAC02D08C8C01D08C9CDBAE02D0CB
:101A30008C8E01D08C9E8C860C0EE66EEFEC0FF037
:101A4000E5528C960C0EE66EEFEC0FF0E552FE0EB2
:101A5000DBA002D08C8801D08C98DBA202D08C8ACB
:101A600001D08C9ADBA402D08C8C01D08C9CDBA69C
:101A700002D08C8E01D08C9E8C860C0EE66EEFEC24
:101A80000FF0E5528C960C0EE66EEFEC0FF0E5527F
:101A9000E552E7CFD9FF1200D9CFE6FFE1CFD9FF5A
:101AA0008C948C968C8EFE0EDBA802D08C8801D094
:101AB0008C98DBAA02D08C8A01D08C9ADBAC02D045
:101AC0008C8C01D08C9C8C860C0EE66EEFEC0FF0AB
:101AD000E5528C960C0EE66EEFEC0FF0E552FE0E22
:101AE000DBA002D08C8801D08C98DBA202D08C8A3B
:101AF00001D08C9ADBA402D08C8C01D08C9CDBA60C
:101B000002D08C8E01D08C9E8C860C0EE66EEFEC93
:101B10000FF0E5528C960C0EE66EEFEC0FF0E552EE
:101B2000E552E7CFD9FF1200D9CFE6FFE1CFD9FFC9
:101B3000E652DF6AFD0EDB06000EF36EFD0EDBCF14
:101B4000F4FFF350F45C20E3FE0EDB50040A13E0D4
:101B5000070A0DE0010A07E0030A02E0DF6A15D078
:101B6000FD0EDB500BD0FD0EDB50400F07D0FD0EFD
:101B7000DB50140F03D0FD0EDB50540FDF6EDFCFB0
:101B8000E6FF8ADFE55201D0DF6AE552E552E7CF92
:101B9000D9FF1200D9CFE6FFE1CFD9FF8C848C9614
:101BA000FE0EDBA802D08C8801D08C98DBAA02D074
:101BB0008C8A01D08C9ADBAC02D08C8C01D08C9CAE
:101BC000DBAE02D08C8E01D08C9E8C860C0EE66E25
:101BD000EFEC0FF0E5528C960C0EE66EEFEC0FF08A
:101BE000E552FE0EDBA002D08C8801D08C98DBA2DF
:101BF00002D08C8A01D08C9ADBA402D08C8C01D0CC
:101C00008C9CDBA602D08C8E01D08C9E8C860C0E18
:101C1000E66EEFEC0FF0E5528C960C0EE66EEFECF4
:101C20000FF0E552E552E7CFD9FF1200D9CFE6FF1A
:101C3000E1CFD9FF070EE126D9CFE9FFDACFEAFFDE
:101C4000200EEE6EEE6AEE6AEE6AEE6AEE6AEE6AFA
:101C5000D9CFE6FFDACFE6FFFD0EDBCFE6FFFE0EC3
:101C6000DBCFE6FF8BEC0EF0E552E552E552E55294
:101C7000D9CFE6FFDACFE6FF0CD8E552E552070EE2
:101C8000E15C02E2E16AE552E16EE552E7CFD9FF9D
:101C90001200D9CFE6FFE1CFD9FFFD0EDBCFE9FF80
:101CA000FE0EDBCFEAFFEF5010E0FD0EDBCFE9FFC9
:101CB000FE0EDBCFEAFFEF50E66E6CDFE552FD0E65
:101CC000DB2AFE0EEAE3DB2AE8D7E552E7CFD9FFAD
:101CD0001200D9CFE6FFE1CFD9FFFD0EDBCFF6FF33
:101CE000FE0EDBCFF7FF0800F55011E0FD0EDBCF55
:101CF000F6FFFE0EDBCFF7FF0800F550E66E4ADF79
:101D0000E552FD0EDB2AFE0EE8E3DB2AE6D7E552BC
:061D1000E7CFD9FF12002D
:0A1D1600D9CFE6FFDACFE6FFFA0EA0
:101D2000E3CFD9FFFB0EE3CFDAFFFD0EE35209E765
:101D30002D0EDE6EFC0EE31EE32AFD0ED8B4E30684
:101D4000E31EE652E652E652FD0EE124E76EFF0E78
:101D5000E220E46EE652F70EE3CFE6FFF70EE3CFA4
:101D6000E6FFFBEC0EF0F90EE124E96EFF0EE22037
:101D7000EA6EEBEC0EF00AE1E8EC0EF009E1EBECB8
:101D80000EF008E1E8EC0EF007E108D0F6EC0EF0FA
:101D9000F1EC0EF0F6EC0EF0F1EC0EF0F6EC0EF0CD
:101DA000DE6AF90EE126FF0EE222FF0EE3CFDAFF34
:101DB000E552FF0EE3CFD9FFE552FC0EE124E96EB8
:101DC000FF0EE220EA6EEECFF3FFEFCFF4FF12003A
:101DD000EF380F0B1200EF500F0B02E1EE52D884D8
:101DE0001200EF380F0B300FDE6E1200EE500F0BAB
:101DF000300FDE6E1200FC0EE3CFE9FFFD0EE3CFE5
:101E0000EAFF100EE66EEE6AEE6AEF6AD890FD0EFB
:101E1000E336FE0EE336ED36ED36EF36FF0EE30623
:101E200009E01CEC0FF0EE521CEC0FF0EE521CEC33
:101E30000FF0EDD7E56E1200030EEF24E8B6EF6E5B
:0A1E4000300EEF24E8BEEF6E000C38
:061E4A002A0EF66E100ED8
:101E5000F76E000EF86E00010900F550656F09007D
:101E6000F550666F03E1656701D03DD00900F5507C
:101E7000606F0900F550616F0900F550626F09004D
:101E80000900F550E96E0900F550EA6E09000900F5
:101E90000900F550636F0900F550646F09000900EF
:101EA000F6CF67F0F7CF68F0F8CF69F060C0F6FFC3
:101EB00061C0F7FF62C0F8FF0001635302E16453A1
:101EC00007E00900F550EE6E6307F8E26407F9D702
:101ED00067C0F6FF68C0F7FF69C0F8FF000165073B
:081EE000000E665BBFD7120083
:081EE800D9CFE6FFDACFE6FFD7
:101EF000E1CFD9FFE2CFDAFFC26AC06AFC0EDB4055
:101F00007F0B3C0BC26EFC0EDB38F00B300B146EFB
:101F1000FB0EDB500F0B1410C16EFD0EDB50040DD9
:101F2000F350380B156EFD0EDB380F0B070B146EDC
:101F3000FD0EDB50800B14101510C06EFC0EDBAED6
:101F400003D09E9C9D8CF28CC280E552E5CFDAFFD7
:061F5000E7CFD9FF1200EB
:0A1F5600FF0EE3501D6EEF0E01D0E8
:101F6000F30EE76EE72EB2EF0FF00C0E1C6EE76A71
:101F7000E72EB8EF0FF01C2EB7EF0FF01D2EB0EFCD
:041F80000FF012004C
:0C1F8400D9CFE6FFDACFE6FFE1CFD9FFAE
:101F9000E2CFDAFFC30EC214146EFD0EDB407F0BDE
:101FA0003C0B1410C26EE552E5CFDAFFE7CFD9FF44
:021FB00012001D
:0E1FB200056A046A100EE76ED89008360936EC
:101FC000043605360D50045C0E50055805E30D50DF
:0E1FD000045E0E50055A082AE72EF0D71200C4
:021FDE00FF0EF4
:101FE000E3501D6E480E01D04C0EE76EE72EFED773
:0E1FF000E76AE72EFED71D2EF7D7000012007D
:021FFE00000ED3
:10200000F36E00EE00F0080E01D81200EA6002D074
:0E201000EE6AFCD7F350E9601200EE6AFCD7CE
:02201E0013EEBF
:1020200000F023EE00F0F86A019C25EC0FF044EC80
:0A20300010F016EC08F0FBD71200C8
:06203A00FF0EE3501D6ED5
:102040001B0E00D001D0200EE76EE72EFED71D2E0E
:06205000FAD700D01200D7
:0A205600C450176E166AC35016102E
:08206000F36E17C0F4FF12003B
:08206800504F543A0056002EBF
:0920700000430054454D503A00B4
:06207A00C250020B01E060
:04208000010E12003B
:04208400C282120002
:02208800120044
:00000001FF
