:020000040000FA
:0600000024EF09F01200DC
:0610000024EF09F01200CC
:061008009AEF08F012004F
:06101800A1EF08F0120038
:06102A0001006612000047
:081030006A000000020000004C
:081038002A0EF66E100EF76E91
:10104000000EF86E00010900F550656F0900F550BB
:10105000666F03E1656701D03DD00900F550606F10
:101060000900F550616F0900F550626F0900090031
:10107000F550E96E0900F550EA6E09000900090013
:10108000F550636F0900F550646F09000900F6CF51
:1010900067F0F7CF68F0F8CF69F060C0F6FF61C085
:1010A000F7FF62C0F8FF0001635302E1645307E0F9
:1010B0000900F550EE6E6307F8E26407F9D767C0E0
:1010C000F6FF68C0F7FF69C0F8FF00016507000E72
:0610D000665BBFD71200B1
:0A10D6000F0EC110C16E94949682B3
:1010E0009684730EE66EE1EC08F0E552E668FCECDF
:1010F00008F0E552000EE66EE66AB2EC08F0E55242
:10110000E55284A20CD000016A2B000E6B236AC04A
:10111000E6FF6BC0E6FFB2EC08F0E552E55284A4AE
:10112000F0D700016A07000E6B5B6AC0E6FF6BC078
:10113000E6FFE3D7DACFE4FFE652E552E5CFDAFF88
:101140001100D8CFE4FFE0CFE4FFE46EDACFE4FF94
:10115000E652E552E5CFDAFFE550E5CFE0FFE5CF17
:04116000D8FF1000A4
:0C116400D9CFE6FFDACFE6FFE1CFD9FFDC
:10117000E2CFDAFFE652E652FC0EDBCF02F0FD0EC4
:10118000DBCF03F0060ED89002360336E804FBE10D
:1011900002C0DEFF03C0DDFF010EDB50BE6EDF507C
:1011A000E840E8403F0B300B026ECF0EBD1402103A
:1011B000BD6EE552E552E552E5CFDAFFE7CFD9FF44
:0211C00012001B
:0E11C200D9CFE6FFDACFE6FFE1CFD9FFE2CFCB
:1011D000DAFFFD0EDB50FB0BCA6ECC6A9E92FD0E51
:1011E000DBAE02D09D8201D09D92CA84E552E5CF4C
:0811F000DAFFE7CFD9FF12007E
:0811F800D9CFE6FFDACFE6FFD4
:10120000E1CFD9FFE2CFDAFF0C0EBD129494CA945D
:10121000FD0EDB50CB6ECA84E552E5CFDAFFE7CF97
:08122000D9FF120094941200A2
:08122800000EF36E00EE00F071
:10123000080E01D81200EA6002D0EE6AFCD7F35023
:08124000E9601200EE6AFCD720
:0812480013EE00F023EE00F0AC
:10125000F86A019C1CEC08F032EC09F06BEC08F029
:04126000FBD71200A6
:02126400120076
:02126600000086
:00000001FF
