:020000040000FA
:06000000E7EF0DF0120015
:06100000E7EF0DF0120005
:0610080007EF0AF01200E0
:0610180093EF0AF0120044
:06102A0001001C1C000087
:081030006A0000000500000049
:08103800D9CFE6FFE1CFD9FF9B
:10104000290EE1260E0EDF6EDE52110EDD6E0E0E43
:10105000F36E020EF3CFDBFF040EF36E030EF3CF3D
:10106000DBFF1F0EF36E040EF3CFDBFFF36E050EF6
:10107000F3CFDBFF0A0EF36E060EF3CFDBFF0A0E93
:10108000F36E070EF3CFDBFF0E0EF36E080EF3CFF9
:10109000DBFF110EF36E090EF3CFDBFF0E0EF36EC6
:1010A0000A0EF3CFDBFF040EF36E0B0EF3CFDBFF64
:1010B000040EF36E0C0EF3CFDBFF040EF36E0D0E79
:1010C000F3CFDBFF0A0EF36E0E0EF3CFDBFF110E34
:1010D000F36E0F0EF3CFDBFF0E0EF36E100EF3CF99
:1010E000DBFF110EF36EDB6E0E0EF36E120EF3CFFE
:1010F000DBFF040EF36E130EF3CFDBFF0E0EF36E69
:10110000140EF3CFDBFF150EF36EDB6E0A0EF36EDB
:10111000160EF3CFDBFF110EF36E170EF3CFDBFFCE
:101120000E0EF36E180EF3CFDBFF110EF36E190ED9
:10113000F3CFDBFF0E0EF36E1A0EF3CFDBFF040EC0
:10114000F36E1B0EF3CFDBFF0E0EF36E1C0EF3CF10
:10115000DBFF150EF36E1D0EF3CFDBFF040EF36EF7
:101160001E0EF3CFDBFF040EF36E1F0EF3CFDBFF7B
:101170000E0EF36E200EF3CFDBFF110EF36E210E79
:10118000F3CFDBFF0E0EF36E220EF3CFDBFF040E68
:10119000F36E230EF3CFDBFF040EF36E240EF3CFBA
:1011A000DBFF040EF36E250EF3CFDBFF040EF36EB0
:1011B000260EF3CFDBFF040EF36E270EF3CFDBFF1B
:1011C000280EDB6A07D9A4EC0AF0010EE66E10ECDB
:1011D0000BF0E5520C0EE66E10EC0BF0E552D9CF99
:1011E000E6FFDACFE6FF050EE66EA6D8E552E55239
:1011F000E552F28EF28C8C82030EE66E020EE66EE3
:10120000A4EC0BF0E552E552060EE66E1C0EE66EFF
:101210006DEC0CF0E552E552090EE66E010EE66E3D
:10122000A4EC0BF0E552E552780EE66EF5EC0DF00D
:10123000E55200016C5154E18B848B92790EE66E7D
:10124000B0EC0DF0E552010EE66E020EE66EA4EC77
:101250000BF0E552E55200016A516B1135E0090EC1
:10126000E66E010EE66EA4EC0BF0E552E552050EBB
:1012700000016BAF02D0D89003D06A5D000E6B59AD
:1012800011E2280EDB28E66ECEEC0BF0E552050EDF
:1012900000016BAF02D0D89003D06A5D000E6B598D
:1012A000DAE2F5D7280EDB50020FE66ECEEC0BF03B
:1012B000E552050E00016BAF02D0D89003D06A5DF5
:1012C000000E6B59C8E3F5D7280EDB50020803E186
:1012D000280EDB6A05D0020EF36E280EF3CFDBFF7B
:1012E000020E6C5D06E1E66ACEEC0BF0E5528B82F5
:1012F0008B9400016C0590E1090EE66E010EE66E1E
:10130000A4EC0BF0E552E5528B94050E00016BAF97
:1013100002D0D89003D06A5D000E6B5907E2200E10
:10132000E66ECEEC0BF0E5528B9276D7E66ACEEC09
:101330000BF0E5528B8270D7D9CFE6FFE1CFD9FF12
:10134000020EE126DF6A010EDB6A400EE66E10EC4B
:101350000BF0E552010EDB6ADBCF04F0FE0EDB5032
:10136000E76E0418E8AE02D0E73402D0E750045C20
:1013700022E2DF6ADFCF04F0080EE76E0418E8AE61
:1013800002D0E73402D0E750045C12E2FC0EDBCF5F
:10139000E9FFFD0EDBCFEAFFEF50E66ECEEC0BF07F
:1013A000E552FC0EDB2AFD0E01E3DB2ADF2AE2D741
:1013B000010EDB2AD1D7010EE66E10EC0BF0E552E0
:1013C000020EE15C02E2E16AE552E16EE552E7CF2E
:1013D000D9FF12000F0EC1129492949493889286B2
:1013E00095920ED8940EE66E94EC0DF0E552840EB4
:1013F000E66E6D0EE66E78EC0DF0E552E5521200E9
:10140000D09EF29EF28CF28AF294F1841200DACF2E
:10141000E4FFE2CFDAFFE9CFE4FFEACFE4FFF6CF63
:10142000E4FFF7CFE4FFF5CFE4FFF3CFE4FFF4CF21
:10143000E4FFFACFE4FF00EE00F0020EE80403E35D
:10144000EECFE4FFFBD700EE04F0010EE80403E367
:10145000EECFE4FFFBD7E652F2A441D0840EE66E55
:101460006D0EE66E78EC0DF0E552E552F294000157
:101470006A2B000E6B230A0E6A1907E16B5105E116
:101480006A6B6B6B6D2B000E6E236C510BE10A0EB9
:101490006EAF02D0D89003D06D5D000E6E5902E39E
:1014A000010E0CD06C050CE1030E6EAF02D0D8908B
:1014B00003D06D5D000E6E5903E3020E6C6F0DD00C
:1014C000020E6C5D0CE10A0E6EAF02D0D89003D014
:1014D0006D5D000E6E5903E36C6B6D6B6E6BE552C8
:1014E00000EE04F0010EE80403E3E5CFEDFFFBD7C7
:1014F00000EE01F0020EE80403E3E5CFEDFFFBD7B9
:10150000E5CFFAFFE5CFF4FFE5CFF3FFE5CFF5FF39
:10151000E5CFF7FFE5CFF6FFE5CFEAFFE5CFE9FF3F
:10152000E5CFDAFF1100D8CFE4FFE0CFE4FFE46EAF
:10153000DACFE4FFE652E552E5CFDAFFE550E5CF3A
:08154000E0FFE5CFD8FF100029
:081548000F0EC112949C949E49
:101550009398939A939C939E829C829E819E819C59
:10156000818A8188060EE66EB0EC0DF0E552060E1B
:10157000E66EB0EC0DF0E552060EE66EB0EC0DF046
:10158000E552828E0C0EE66EC7EC0DF0E552829E9F
:101590000C0EE66EC7EC0DF0E552060EE66EB0ECF2
:1015A0000DF0E552828E0C0EE66EC7EC0DF0E552A2
:1015B000829E0C0EE66EC7EC0DF0E552060EE66E4E
:1015C000B0EC0DF0E552828E0C0EE66EC7EC0DF01D
:1015D000E552829E0C0EE66EC7EC0DF0E552819E40
:1015E000819C818A8198828E0C0EE66EC7EC0DF08C
:1015F000E552829E0C0EE66EC7EC0DF0E552280E09
:10160000E66E0ED8E552060EE66E0AD8E5520E0ECC
:10161000E66E06D8E552010EE66E02D8E5521200DB
:10162000D9CFE6FFE1CFD9FF829C829EFE0EDBA8D8
:1016300002D0818801D08198DBAA02D0818A01D0B2
:10164000819ADBAC02D0818C01D0819CDBAE02D0D0
:10165000818E01D0819E828E0C0EE66EC7EC0DF05D
:10166000E552829E0C0EE66EC7EC0DF0E552FE0EC2
:10167000DBA002D0818801D08198DBA202D0818AD0
:1016800001D0819ADBA402D0818C01D0819CDBA6A1
:1016900002D0818E01D0819E828E0C0EE66EC7EC48
:1016A0000DF0E552829E0C0EE66EC7EC0DF0E55291
:1016B000E552E7CFD9FF1200D9CFE6FFE1CFD9FF3E
:1016C000829C829E818EFE0EDBA802D0818801D092
:1016D0008198DBAA02D0818A01D0819ADBAC02D04A
:1016E000818C01D0819C828E0C0EE66EC7EC0DF0D1
:1016F000E552829E0C0EE66EC7EC0DF0E552FE0E32
:10170000DBA002D0818801D08198DBA202D0818A3F
:1017100001D0819ADBA402D0818C01D0819CDBA610
:1017200002D0818E01D0819E828E0C0EE66EC7ECB7
:101730000DF0E552829E0C0EE66EC7EC0DF0E55200
:10174000E552E7CFD9FF1200D9CFE6FFE1CFD9FFAD
:10175000E652DF6AFD0EDB06000EF36EFD0EDBCFF8
:10176000F4FFF350F45C14E3FE0EDB50020A07E0D2
:10177000030A02E0DF6A0DD0FD0EDB5003D0FD0E40
:10178000DB50400FDF6EDFCFE6FF96DFE55201D082
:10179000DF6AE552E552E7CFD9FF1200D9CFE6FF65
:1017A000E1CFD9FF828C829EFE0EDBA802D0818819
:1017B00001D08198DBAA02D0818A01D0819ADBAC6A
:1017C00002D0818C01D0819CDBAE02D0818E01D011
:1017D000819E828E0C0EE66EC7EC0DF0E552829E65
:1017E0000C0EE66EC7EC0DF0E552FE0EDBA002D04B
:1017F000818801D08198DBA202D0818A01D0819AB0
:10180000DBA402D0818C01D0819CDBA602D0818E2A
:1018100001D0819E828E0C0EE66EC7EC0DF0E55273
:10182000829E0C0EE66EC7EC0DF0E552E552E7CF56
:10183000D9FF1200D9CFE6FFE1CFD9FF070EE1268D
:10184000D9CFE9FFDACFEAFF200EEE6EEE6AEE6A3C
:10185000EE6AEE6AEE6AEE6AD9CFE6FFDACFE6FF0D
:10186000FD0EDBCFE6FFFE0EDBCFE6FF8FEC0CF0CC
:10187000E552E552E552E552D9CFE6FFDACFE6FF71
:101880000CD8E552E552070EE15C02E2E16AE5524E
:10189000E16EE552E7CFD9FF1200D9CFE6FFE1CFE5
:1018A000D9FFFD0EDBCFE9FFFE0EDBCFEAFFEF50E5
:1018B00010E0FD0EDBCFE9FFFE0EDBCFEAFFEF50BD
:1018C000E66E6CDFE552FD0EDB2AFE0EEAE3DB2A54
:1018D000E8D7E552E7CFD9FF1200D9CFE6FFE1CF35
:1018E000D9FFFD0EDBCFF6FFFE0EDBCFF7FF0800C2
:1018F000F55011E0FD0EDBCFF6FFFE0EDBCFF7FF5C
:101900000800F550E66E4ADFE552FD0EDB2AFE0EBA
:0E191000E8E3DB2AE6D7E552E7CFD9FF120065
:02191E00D9CF1F
:10192000E6FFDACFE6FFFA0EE3CFD9FFFB0EE3CFF7
:10193000DAFFFD0EE35209E72D0EDE6EFC0EE31E0C
:10194000E32AFD0ED8B4E306E31EE652E652E65261
:10195000FD0EE124E76EFF0EE220E46EE652F70E84
:10196000E3CFE6FFF70EE3CFE6FFFFEC0CF0F90E56
:10197000E124E96EFF0EE220EA6EEFEC0CF00AE1E2
:10198000ECEC0CF009E1EFEC0CF008E1ECEC0CF005
:1019900007E108D0FAEC0CF0F5EC0CF0FAEC0CF0E6
:1019A000F5EC0CF0FAEC0CF0DE6AF90EE126FF0E15
:1019B000E222FF0EE3CFDAFFE552FF0EE3CFD9FFBD
:1019C000E552FC0EE124E96EFF0EE220EA6EEECF56
:1019D000F3FFEFCFF4FF1200EF380F0B1200EF50C0
:1019E0000F0B02E1EE52D8841200EF380F0B300FCC
:1019F000DE6E1200EE500F0B300FDE6E1200FC0E8A
:101A0000E3CFE9FFFD0EE3CFEAFF100EE66EEE6ACC
:101A1000EE6AEF6AD890FD0EE336FE0EE336ED3641
:101A2000ED36EF36FF0EE30609E020EC0DF0EE5246
:101A300020EC0DF0EE5220EC0DF0EDD7E56E12002B
:101A4000030EEF24E8B6EF6E300EEF24E8BEEF6E23
:021A5000000C88
:0E1A52002A0EF66E100EF76E000EF86E0001F2
:101A60000900F550656F0900F550666F03E1656781
:101A700001D03DD00900F550606F0900F550616F4D
:101A80000900F550626F09000900F550E96E090080
:101A9000F550EA6E090009000900F550636F09006E
:101AA000F550646F09000900F6CF67F0F7CF68F0D2
:101AB000F8CF69F060C0F6FF61C0F7FF62C0F8FFC1
:101AC0000001635302E1645307E00900F550EE6E34
:101AD0006307F8E26407F9D767C0F6FF68C0F7FF4D
:101AE00069C0F8FF00016507000E665BBFD71200F2
:101AF000D9CFE6FFDACFE6FFE1CFD9FFE2CFDAFFB9
:101B0000E652E652FC0EDBCFDEFFDBCFDDFF010E3F
:101B1000DB50D76EDF50D66EE552E552E552E5CF89
:081B2000DAFFE7CFD9FF120044
:081B2800D9CFE6FFDACFE6FF9A
:101B3000E1CFD9FFE2CFDAFFFD0EDB507F0BD56E90
:101B4000D76AD66AF294FD0EDBAE02D0F28A01D0DB
:101B5000F29AD58EE552E5CFDAFFE7CFD9FF120032
:101B6000FF0EE350036EEF0E01D0F30EE76EE72E8B
:101B7000B7EF0DF00C0E026EE76AE72EBDEF0DF029
:0E1B8000022EBCEF0DF0032EB5EF0DF012009B
:021B8E00FF0E48
:101B9000E350036E480E01D04C0EE76EE72EFED7E1
:0E1BA000E76AE72EFED7032EF7D700001200EB
:021BAE00000E27
:101BB000F36E00EE00F0080E01D81200EA6002D0C9
:0E1BC000EE6AFCD7F350E9601200EE6AFCD723
:021BCE0013EE14
:101BD00000F023EE00F0F86A019C29EC0DF00DEC0A
:0A1BE0000EF01CEC08F0FBD7120019
:061BEA00FF0EE350036E44
:101BF0001B0E00D001D0200EE76EE72EFED7032E7D
:061C0000FAD700D012002B
:0A1C0600437572736F2053454D5073
:0A1C10005241000000000000000037
:021C1A001200B6
:041C1C0000000000C4
:011C200000C3
:00000001FF
