:020000040000FA
:0400000080EF3FF05E
:107F0000000183EF3FF00F0EC16E470ED36E929AC1
:107F1000898A030E0A6EE80E096E97EC3FF0899A83
:107F2000030E0A6EE80E096E97EC3FF0F1D709C018
:107F300001F00AC002F0000E046E0A0E036EBEECE1
:107F40003FF001C009F002C00AF0000E0D6E000EF5
:107F50000C6E09D0040E0B6E3E0EE82EFED70B2ED3
:107F6000FCD70C4A0D2A09500C5C0D50800A0B6E90
:107F70000A50800A0B58D8B01200ECD7000E066EDB
:107F800004AE06D0036C041ED8B0042A010E066E9F
:107F900002AE06D0016C021ED8B0022A010E061AEB
:107FA000000E086E000E076E03500410D8B41CD0EB
:107FB000010E056E04D0D89003360436052A04AEAF
:107FC000FAD7D890073608360350015C045002589F
:107FD000D8A005D00350015E0450025A0780D89003
:107FE00004320332052EEDD70650D8B404D0076C06
:107FF000081ED8B0082A07C001F008C002F012001D
:020000040020DA
:08000000FFFFFFFFFFFFFFFF00
:020000040030CA
:0E00000000081F1FFF8385FF0FC00FE00F4099
:00000001FF
