:020000040000FA
:0600000040EF0BF01200BE
:0610000040EF0BF01200AE
:06100800A4EF09F0120044
:06101800ABEF09F012002D
:06102A000100BE160000EB
:081030006A000000020000004C
:08103800D9CFE6FFE1CFD9FF9B
:10104000040EE12601D065D0FB0EDBCF10F0FC0EC4
:10105000DBCF11F0FD0EDBCF12F0FE0EDBCF13F075
:10106000780E0B6E0C6A0D6A0E6A10C006F011C085
:1010700007F012C008F013C009F00BEC0AF002C030
:1010800010F003C011F004C012F005C013F010C03E
:10109000DFFF010E11C0DBFF020E12C0DBFF030EEB
:1010A00013C0DBFFD9CFE9FFDACFEAFFAF0EEE5E68
:1010B000000EEE5A000EEE5A000EEE5AD9CFE9FF9E
:1010C000DACFEAFFD8802D0EEE54000EEE54000E5B
:1010D000EE54000EEE5401E31CD0D9CFE9FFDACF75
:1010E000EAFFD880000EEE54000EEE54000EEE54CF
:1010F000000EEE540EE20000D9CFE9FFDACFEAFF8E
:101100002A0EEE5E000EEE5A000EEE5A000EEE5A59
:10111000E4D7040EE15C02E2E16AE552E16EE552D9
:10112000E7CFD9FF1200D9CFE6FFE1CFD9FF040EF8
:10113000E126FD0EDBCF10F0FE0EDBCF11F0126AC0
:10114000136AE00E0B6E2E0E0C6E0D6A0E6A10C046
:1011500006F011C007F012C008F013C009F00BEC44
:101160000AF002C010F003C011F004C012F005C074
:1011700013F010C0DFFF010E11C0DBFF020E12C022
:10118000DBFF030E13C0DBFFD9CFE9FFDACFEAFFA5
:10119000AA0EEE5E000EEE5A000EEE5A000EEE5A49
:1011A000DECF07F0DECF08F0DECF09F0DDCF0AF0AA
:1011B000DD52DD520A34000E0A1809E6D880C30E4B
:1011C0000754000E0854000E0954000E0A5402E39E
:1011D00027D026D0DECF07F0DECF08F0DECF09F033
:1011E000DDCF0AF0DD52DD520A34000E0A1809E69E
:1011F000D880000E0754000E0854000E0954000E4B
:101200000A540EE20000D9CFE9FFDACFEAFF270E39
:10121000EE5E000EEE5A000EEE5A000EEE5ADAD7CF
:10122000040EE15C02E2E16AE552E16EE552E7CFCD
:04123000D9FF1200D0
:0C123400D9CFE6FFE1CFD9FF060EE1267E
:10124000DE6ADD6A0A0EF36E020EF3CFDBFF280EB4
:10125000F36E030EF3CFDBFFA00EF36E040EF3CF9D
:10126000DBFF3B0EF36E050EF3CFDBFF68D847D8EC
:101270008F0EE66E02EC0BF0E55257EC0BF0000916
:10128000FCE14EEC0BF0F3CFDEFFF4CFDDFFDECF61
:101290006AF0DDCF6BF0040E0D6E0E6A6AC008F0C6
:1012A0006BC009F0A9EC0AF008C06AF009C06BF045
:1012B0000001D890095004E6FF0E6A5D030E6B59D9
:1012C00003E36A69030E6B6F6B3504E26A51000831
:1012D000000E6B5502E36A6B6B6B6AC0E6FF6BC076
:1012E000E6FF7AEC0AF0E552E552640EE66EE66A35
:1012F00093EC08F0E552E5525CEC0BF0BED70F0E14
:10130000C110C16E9494730EE66ECFEC0AF0E552F4
:10131000E668EAEC0AF0E552000EE66EE66A7AEC60
:101320000AF0E552E552FA0EE66E0C0EE66EE30E9A
:10133000E66E43EC0AF0E552E552E5521200F29EE9
:10134000D08EF29EF29C1200DACFE4FFE652E55214
:10135000E5CFDAFF1100D8CFE4FFE0CFE4FFE46E81
:10136000DACFE4FFE652E552E5CFDAFFE550E5CF0C
:08137000E0FFE5CFD8FF1000FB
:081378002A0EF66E100EF76E4E
:10138000000EF86E00010900F550656F0900F55078
:10139000666F03E1656701D03DD00900F550606FCD
:1013A0000900F550616F0900F550626F09000900EE
:1013B000F550E96E0900F550EA6E090009000900D0
:1013C000F550636F0900F550646F09000900F6CF0E
:1013D00067F0F7CF68F0F8CF69F060C0F6FF61C042
:1013E000F7FF62C0F8FF0001635302E1645307E0B6
:1013F0000900F550EE6E6307F8E26407F9D767C09D
:10140000F6FF68C0F7FF69C0F8FF00016507000E2E
:06141000665BBFD712006D
:0A14160006500B02F3CF02F0F4CFF2
:1014200003F00C02F3500326000EF420046E065065
:101430000D02F3500426000EF420056E06500E0235
:10144000F350052607500B02F3500326F4500422F4
:10145000000E052207500C02F3500426F45005221A
:1014600007500D02F350052608500B02F3500426D6
:10147000F450052208500C02F350052609500B02C7
:06148000F35005261200E6
:0A148600D9CFE6FFDACFE6FFE1CF91
:10149000D9FFE2CFDAFFC26AC06AFC0EDB407F0BE5
:1014A0003C0BC26EFC0EDB38F00B300B106EFB0EEB
:1014B000DB500F0B1010C16EFD0EDB50040DF3500E
:1014C000380B116EFD0EDB380F0B070B106EFD0E87
:1014D000DB50800B10101110C06EFC0EDBAE03D081
:1014E0009E9C9D8CF28CC280E552E5CFDAFFE7CF5F
:0414F000D9FF12000E
:0C14F400D9CFE6FFDACFE6FFE1CFD9FF49
:10150000E2CFDAFFE652E652FC0EDBCF10F0FD0E22
:10151000DBCF11F0060ED89010361136E804FBE14F
:1015200010C0DEFF11C0DDFF010EDB50BE6EDF50CC
:10153000E840E8403F0B300B106ECF0EBD1410108A
:10154000BD6EE552E552E552E5CFDAFFE7CFD9FFB0
:02155000120087
:0E155200006A0EAEB2EF0AF00D6C0E1EE86AD3
:101560000E22001E09AEBAEF0AF0086C091EE86AE6
:101570000922001E1AEC0BF009BECAEF0AF000AEF9
:10158000000C086C091EE86A0922046C051EE86A52
:0E1590000522000C00BEC1EF0AF00188FF0C1E
:02159E00D9CFA3
:1015A000E6FFDACFE6FFE1CFD9FFE2CFDAFFFD0EAB
:1015B000DB50FB0BCA6ECC6A9E92FD0EDBAE02D0F6
:1015C0009D8201D09D92CA84E552E5CFDAFFE7CF34
:0415D000D9FF12002D
:0C15D400D9CFE6FFDACFE6FFE1CFD9FF68
:1015E000E2CFDAFF0C0EBD129494CA94FD0EDB50CC
:1015F000CB6ECA84E552E5CFDAFFE7CFD9FF120000
:0416000094941200AC
:0C160400D9CFE6FFDACFE6FFE1CFD9FF37
:10161000E2CFDAFFFD0EDB407F0B3C0B106EC30EFA
:10162000C2141010C26EC282E552E5CFDAFFE7CFD6
:04163000D9FF1200CC
:0C163400056A046A100EE76ED8900836B4
:101640000936043605360D50045C0E50055805E386
:101650000D50045E0E50055A082AE72EF0D71200EE
:10166000000EF36E00EE00F0080E01D81200EA60E2
:1016700002D0EE6AFCD7F350E9601200EE6AFCD7A4
:1016800013EE00F023EE00F0F86A019CBCEC09F0C8
:0C1690005EEC0BF01AEC09F0FBD7120026
:04169C00C450136EB5
:0E16A000126AC3501210F36E13C0F4FF120052
:0216AE00C25028
:0816B000020B01E0010E120023
:0416B800C2821200D8
:0216BC0012001A
:0216BE0000002A
:00000001FF
